:100000000C942F010C9411040C94EA030C945701E6
:100010000C9457010C9457010C9457010C94570100
:100020000C9457010C9457010C9457010C945701F0
:100030000C9457010C9457010C9457010C945701E0
:100040000C94A0030C9457010C9457010C94570185
:100050000C9457010C9457010C9457010C945701C0
:100060000C9457010C945701000000002300260057
:10007000290000000000240027002A0000000000E2
:10008000250028002B0004040404040404040202D4
:100090000202020203030303030301020408102007
:1000A0004080010204081020010204081020000012
:1000B0000008000201000003040700000000000027
:1000C0000000000000000000000000000000000927
:1000D0006000000000000071310000007A73617759
:1000E00032000063786465343300002076667472F1
:1000F0003500006E62686779360000006D6A7537FA
:100100003800002C6B696F303900002E2F6C3B706B
:100110002D00000027005B3D000000000D5D005C2D
:1001200000000000000000007F00003100343700B4
:100130000000302E323536381B00002B332D2A3983
:1001400000000000000000000000000000000000AF
:1001500000000000000000097E00000000000051C7
:10016000210000005A5341574000004358444524A1
:1001700023000020564654522500004E424847595D
:100180005E0000004D4A55262A00003C4B494F298D
:100190002800003E3F4C3A505F00000022007B2BBD
:1001A000000000000D7D007C000000000000000049
:1001B0007F000031003437000000302E32353638F1
:1001C0001B00002B332D2A39000000000000000026
:1001D000000000000000000000000000000000001F
:1001E000000000000000000000000000000000000F
:1001F00000000000000000000000000000000000FF
:1002000000000000000000000000000000000000EE
:1002100000000000000000000000000000000000DE
:1002200000000000000000000000000000000000CE
:1002300000000000000000000000000000000000BE
:1002400000000000000000000000000000000000AE
:1002500000000000000000000000000089051124DB
:100260001FBECFEFD8E0DEBFCDBF11E0A0E0B1E010
:10027000E4E4FBE002C005900D92AC39B107D9F778
:1002800022E0ACE9B1E001C01D92AF30B207E1F766
:1002900011E0CFE2D1E004C02197FE010E949A054F
:1002A000CE32D107C9F70E9438040C94A0050C94F3
:1002B000000000000000000000000000000000003E
:1002C000833081F028F4813099F08230A9F00895CC
:1002D0008730A9F08830C9F08430B1F48091800073
:1002E0008F7D03C0809180008F7780938000089578
:1002F00084B58F7784BD089584B58F7DFBCF8091C1
:10030000B0008F778093B00008958091B0008F7D0A
:10031000F9CF1F93CF93DF93282F30E0F901E255F7
:10032000FF4F8491F901E656FF4FD491F901EA5746
:10033000FF4FC491CC23A9F0162F81110E946001B8
:10034000EC2FF0E0EE0FFF1FE458FF4FA591B491A2
:100350008FB7F894EC91111108C0D095DE23DC938F
:100360008FBFDF91CF911F910895DE2BF8CFCF93F0
:10037000DF9390E0FC01E656FF4F24918A579F4F90
:10038000FC0184918823D1F090E0880F991FFC0133
:10039000EE58FF4FA591B491FC01E458FF4FC59171
:1003A000D491623071F49FB7F8943C91822F80957C
:1003B00083238C93E8812E2B28839FBFDF91CF91DD
:1003C00008958FB7F894EC912E2B2C938FBFF6CF16
:1003D0003FB7F8948091D5019091D601A091D701B3
:1003E000B091D80126B5A89B05C02F3F19F0019602
:1003F000A11DB11D3FBFBA2FA92F982F8827BC017F
:10040000CD01620F711D811D911D42E0660F771FA6
:10041000881F991F4A95D1F708958F929F92AF92A6
:10042000BF92CF92DF92EF92FF924B015C010E944C
:10043000E8016B017C010E94E8016C197D098E09BD
:100440009F09683E734081059105A8F321E0821A57
:100450009108A108B10888EEC80E83E0D81EE11CFF
:10046000F11C81149104A104B10429F7FF90EF90CD
:10047000DF90CF90BF90AF909F908F900895089598
:10048000CF932091DB013091DC01B90168577F4F98
:10049000A9014F5E5E4F9091CF01D901A05FBE4F81
:1004A0008091D901E091DA018E1305C09093CF01BC
:1004B00080E0CF9108958F5F8D3208F080E0E82FC3
:1004C000F0E0EE55FE4FE0818093D901EE2371F309
:1004D000E03F11F49160E4CFE03E11F49260E0CF90
:1004E00090FF0FC0E23119F49B7F9C7FD9CFE93593
:1004F00011F4977FFACFE131C1F791FFF6CF9F7EDC
:10050000F4CFE23111F49460CBCFE93511F4986067
:10051000C7CFE13111F491FD9061C92FCC7F91FFDC
:1005200010C0EA54E43310F09C2FBACFF0E0E45F3F
:10053000FE4F80819C2F882309F4B2CFC093CF0156
:10054000B8CF94FF0AC08C91882339F0E83860F75F
:10055000E40FF52FF11D8491EDCF9C7031F0E83858
:1005600018F7E60FF72FF11DF6CFE838E8F6E20F9F
:10057000F32FF11DF0CFCF92DF92EF92FF920F9306
:100580001F93CF93DF932091DD0130E0F901E25515
:10059000FF4F8491F901E656FF4FD491F901EA57D4
:1005A000FF4FC491CC2309F471C081110E946001F6
:1005B000EC2FF0E0EE0FFF1FE859FF4FA591B4912B
:1005C000EC91ED2331E009F430E0832F2FB7F8945C
:1005D0004091D1015091D2016091D3017091D40129
:1005E0002FBF00919E0110919F012091A001309199
:1005F000A1016A017B01C01AD10AE20AF30A97013C
:1006000086010B3F11052105310520F010929D0157
:1006100010929C0140939E0150939F016093A00112
:100620007093A10120919D013FEF320F383048F4C3
:1006300001C0880F3A95EAF790919C01892B80932D
:100640009C012F5F20939D012B30B9F48091DA013A
:100650008F5F8D3208F080E09091D901981749F0B2
:10066000E82FF0E090919C01EE55FE4F908380932F
:10067000DA0110929D0110929C01DF91CF911F91A0
:100680000F91FF90EF90DF90CF90089580E09ECF84
:100690000F931F93CF93DF938B01EA0160E08EE00D
:1006A0000E94890161E08EE00E94B701F8942197D1
:1006B00008F42BC0F8010190008007D0029005D00B
:1006C00001900190019001D017C008D007D006D04A
:1006D00005D004D003D002D001D00895409A001C68
:1006E0000000000008F0409800000000000000003A
:1006F000000008F4409808958F018091DE0188235E
:1007000009F4D5CF78940000D1CF78948BEC97E0A2
:100710000197F1F7DF91CF911F910F910895E4EECA
:10072000F1E061937193819391E0E93FF907C9F793
:1007300047E050E064EE71E084E091E00C944803FF
:100740001F920F920FB60F9211242F933F938F9306
:100750009F93AF93BF938091D1019091D201A091CB
:10076000D301B091D4013091D00123E0230F2D3774
:1007700058F50196A11DB11D2093D0018093D101A0
:100780009093D201A093D301B093D4018091D5016D
:100790009091D601A091D701B091D8010196A11DE9
:1007A000B11D8093D5019093D601A093D701B0934A
:1007B000D801BF91AF919F918F913F912F910F9051
:1007C0000FBE0F901F90189526E8230F0296A11DCB
:1007D000B11DD2CF1F920F920FB60F9211242F93FB
:1007E0003F934F935F936F937F938F939F93AF93B9
:1007F000BF93EF93FF93E0910201F09103010995FC
:10080000FF91EF91BF91AF919F918F917F916F91E8
:100810005F914F913F912F910F900FBE0F901F90BE
:1008200018951F920F920FB60F9211242F933F939A
:100830004F935F936F937F938F939F93AF93BF93E8
:10084000EF93FF93E0910001F09101010995FF9171
:10085000EF91BF91AF919F918F917F916F915F9138
:100860004F913F912F910F900FBE0F901F901895B1
:10087000789484B5826084BD84B5816084BD85B57B
:10088000826085BD85B5816085BD80916E00816087
:1008900080936E001092810080918100826080932D
:1008A000810080918100816080938100809180002F
:1008B0008160809380008091B10084608093B1005A
:1008C0008091B00081608093B00080917A00846054
:1008D00080937A0080917A00826080937A00809180
:1008E0007A00816080937A0080917A00806880939A
:1008F0007A001092C10061E087E00E94B70161E0D8
:1009000087E00E94890161E08DE00E94B70160E00C
:100910008DE00E94890185E08093DD0182EC90E00A
:100920009093DC018093DB0162E083E00E94B701D9
:1009300062E085E00E94B7011092DA011092D901BD
:100940008BEB92E090930301809302018091690008
:10095000837F886080936900E99A81E08093DE015B
:100960006091F9017091FA018091FB010E948F035F
:100970009DE0E92E23E0B22E30E4A32EC0E0D0E0CB
:1009800010920E028091E0019091DF019111BDC0A3
:10099000811116C00E9440028093DF01882309F470
:1009A00049C01092DF0187FF80C0982F9F73906825
:1009B0009093E0018295869586958370806C02C045
:1009C0001092E001909100028D3009F090C09D30AE
:1009D00009F08DC01092000281E0C82E82E0D82E6E
:1009E00010E000E0F090FF01F60181916F01F80145
:1009F000EF9CE00DF11D1124E05CFE4F90819817F3
:100A000009F458C01092FF016091FC017091FD0142
:100A10008091FE010E948F0368EE73E080E090E019
:100A20000E940D026091F9017091FA018091FB0121
:100A30000E948F038091FF01873089F561E08DE08E
:100A40000E94890161E08DE00E9489011092FF01FE
:100A500014E06091E1017091E2018091E3010E9454
:100A60008F0364EF71E080E090E00E940D026091DE
:100A7000F9017091FA018091FB010E948F0364EFEC
:100A800071E080E090E00E940D02115011F760E0EB
:100A90008DE00E94890160E08DE00E94890120972D
:100AA00009F46ECF0E9400006BCF81118BCF8FEFC6
:100AB0009FEF88CF0C30110599F4FB9CF0011124B5
:100AC000EC51FE4F1082A182128247E050E064EEAA
:100AD00071E084E091E00E944803F394F092FF01FA
:100AE0000F5F1F4F0D30110509F07CCFA3CF9D3054
:100AF00048F4E92FF0E0EF5FFD4F80839F5F909314
:100B0000000298CF1092000295CF811159CF892F02
:100B100048CFECEFF1E080E4808311821282E1EEB5
:100B2000F1E0108281831282E9EFF1E010821182FC
:100B300012820895EE0FFF1F0590F491E02D0994A5
:040B4000F894FFCF57
:100B44003F023F020A010000000048032F0000009A
:100B54000000000000000000000000000D00000084
:100B64000000000000000000000000000008000079
:100B74000000007F0A00150B000000001A00001995
:100B84003534313036373330353230303135323038
:100B9400313030353037393737393837313034340C
:100BA4003732343637393535323031303636313103
:100BB40031313238353035333939303135353335F3
:100BC40034353230313030343032303333383532FA
:0C0BD400303231373830383337343700D6
:00000001FF
