:100000000C942F010C9457070C9430070C94570153
:100010000C9457010C9457010C9457010C94570100
:100020000C9457010C9457010C9457010C945701F0
:100030000C9457010C9457010C9457010C945701E0
:100040000C94E6060C9457010C94B4060C948E069E
:100050000C9457010C9457010C9457010C945701C0
:100060000C9457010C945701000000002300260057
:10007000290000000000240027002A0000000000E2
:10008000250028002B0004040404040404040202D4
:100090000202020203030303030301020408102007
:1000A0004080010204081020010204081020000012
:1000B0000008000201000003040700000000000027
:1000C0000000000000000000000000000000000927
:1000D0006000000000000071310000007A73617759
:1000E00032000063786465343300002076667472F1
:1000F0003500006E62686779360000006D6A7537FA
:100100003800002C6B696F303900002E2F6C3B706B
:100110002D00000027005B3D000000000D5D005C2D
:1001200000000000000000007F00003100343700B4
:100130000000302E323536381B00002B332D2A3983
:1001400000000000000000000000000000000000AF
:1001500000000000000000097E00000000000051C7
:10016000210000005A5341574000004358444524A1
:1001700023000020564654522500004E424847595D
:100180005E0000004D4A55262A00003C4B494F298D
:100190002800003E3F4C3A505F00000022007B2BBD
:1001A000000000000D7D007C000000000000000049
:1001B0007F000031003437000000302E32353638F1
:1001C0001B00002B332D2A39000000000000000026
:1001D000000000000000000000000000000000001F
:1001E000000000000000000000000000000000000F
:1001F00000000000000000000000000000000000FF
:1002000000000000000000000000000000000000EE
:1002100000000000000000000000000000000000DE
:1002200000000000000000000000000000000000CE
:1002300000000000000000000000000000000000BE
:1002400000000000000000000000000000000000AE
:1002500000000000000000000000000080071124E2
:100260001FBECFEFD8E0DEBFCDBF23E0AAE7B1E0ED
:1002700001C01D92A830B207E1F711E0A0E0B1E0A3
:10028000EAEFF8E102C005900D92AA37B107D9F75D
:1002900011E0CFE2D1E004C02197FE010E946C0A78
:1002A000CE32D107C9F70E94CF070C947B0C0C9477
:1002B000000000000000000000000000000000003E
:1002C000AF92BF92CF92DF92EF92FF920F931F9364
:1002D000CF93DF936C017B018B01040F151FEB01A2
:1002E0005E01AE18BF08C017D10759F06991D60159
:1002F000ED91FC910190F081E02DC6010995892BCB
:1003000079F7C501DF91CF911F910F91FF90EF9089
:10031000DF90CF90BF90AF900895FC01538D448D36
:10032000252F30E0842F90E0821B930B541710F0A0
:10033000CF96089501970895FC01918D828D9817AD
:1003400061F0A28DAE0FBF2FB11D5D968C91928D85
:100350009F5F9F73928F90E008958FEF9FEF0895B6
:10036000FC01918D828D981731F0828DE80FF11D7F
:10037000858D90E008958FEF9FEF0895FC01918D9A
:10038000228D892F90E0805C9F4F821B91098F7393
:100390009927089589EF91E00E94BE0121E0892B01
:1003A00009F420E0822F089580E090E0892B29F065
:1003B0000E94CA0181110C9400000895FC01A48DD3
:1003C000A80FB92FB11DA35ABF4F2C91848D90E077
:1003D00001968F739927848FA689B7892C93A0895A
:1003E000B1898C91837080648C93938D848D9813E4
:1003F00006C00288F389E02D80818F7D8083089577
:10040000EF92FF920F931F93CF93DF93EC0181E064
:10041000888F9B8D8C8D98131AC0E889F98980810B
:1004200085FF15C09FB7F894EE89FF896083E8893E
:10043000F98980818370806480839FBF81E090E030
:10044000DF91CF911F910F91FF90EF900895F62EBD
:100450000B8D10E00F5F1F4F0F731127E02E8C8D57
:100460008E110CC00FB607FCFACFE889F98980819C
:1004700085FFF5CFCE010E94DE01F1CFEB8DEC0FB1
:10048000FD2FF11DE35AFF4FF0829FB7F8940B8FB9
:10049000EA89FB8980818062CFCFCF93DF93EC0123
:1004A000888D8823B9F0AA89BB89E889F9898C915C
:1004B00085FD03C0808186FD0DC00FB607FCF7CF18
:1004C0008C9185FFF2CF808185FFEDCFCE010E9418
:1004D000DE01E9CFDF91CF910895833081F028F4D8
:1004E000813099F08230A9F008958730A9F08830E2
:1004F000C9F08430B1F4809180008F7D03C0809179
:1005000080008F7780938000089584B58F7784BDB5
:10051000089584B58F7DFBCF8091B0008F77809355
:10052000B00008958091B0008F7DF9CF1F93CF93D5
:10053000DF93282F30E0F901E255FF4F8491F90154
:10054000E656FF4FD491F901EA57FF4FC491CC23EF
:10055000A9F0162F81110E946D02EC2FF0E0EE0F32
:10056000FF1FE458FF4FA591B4918FB7F894EC9119
:10057000111108C0D095DE23DC938FBFDF91CF919E
:100580001F910895DE2BF8CFCF93DF9390E0FC010D
:10059000E656FF4F24918A579F4FFC018491882390
:1005A000D1F090E0880F991FFC01EE58FF4FA59104
:1005B000B491FC01E458FF4FC591D491623071F4BD
:1005C0009FB7F8943C91822F809583238C93E88188
:1005D0002E2B28839FBFDF91CF9108958FB7F8947A
:1005E000EC912E2B2C938FBFF6CF3FB7F8948091D0
:1005F000C9019091CA01A091CB01B091CC0126B55F
:10060000A89B05C02F3F19F00196A11DB11D3FBF4A
:10061000BA2FA92F982F8827BC01CD01620F711D19
:10062000811D911D42E0660F771F881F991F4A9513
:10063000D1F708958F929F92AF92BF92CF92DF929F
:10064000EF92FF924B015C010E94F5026B017C016D
:100650000E94F5026C197D098E099F09683E73405E
:1006600081059105A8F321E0821A9108A108B1083B
:1006700088EEC80E83E0D81EE11CF11C81149104A1
:10068000A104B10429F7FF90EF90DF90CF90BF90C5
:10069000AF909F908F900895EF92FF920F931F93CA
:1006A000CF93DF938B01D0E0C0E001977C01809174
:1006B000FA029091FB02DC01ED91FC910084F1853E
:1006C000E02D0995E816F90694F061E070E080E00D
:1006D00090E00E941A0321960C171D0741F780E055
:1006E000DF91CF911F910F91FF90EF90089581E0DE
:1006F000F7CF0895DC01ED91FC910190F081E02DA0
:100700000994CF932091CF013091D001B90168575E
:100710007F4FA9014F5E5E4F9091C301D901A05F49
:10072000BE4F8091CD01E091CE018E1305C0909314
:10073000C30180E0CF9108958F5F8D3208F080E093
:10074000E82FF0E0EA56FE4FE0818093CD01EE23E2
:1007500071F3E03F11F49160E4CFE03E11F4926058
:10076000E0CF90FF0FC0E23119F49B7F9C7FD9CF7F
:10077000E93511F4977FFACFE131C1F791FFF6CF58
:100780009F7EF4CFE23111F49460CBCFE93511F4C0
:100790009860C7CFE13111F491FD9061C92FCC7FF2
:1007A00091FF10C0EA54E43310F09C2FBACFF0E070
:1007B000EE5EFE4F80819C2F882309F4B2CFC09358
:1007C000C301B8CF94FF0AC08C91882339F0E83870
:1007D00060F7E40FF52FF11D8491EDCF9C7031F09F
:1007E000E83818F7E60FF72FF11DF6CFE838E8F6EE
:1007F000E20FF32FF11DF0CFCF92DF92EF92FF9235
:100800000F931F93CF93DF932091D10130E0F90133
:10081000E255FF4F8491F901E656FF4FD491F9015B
:10082000EA57FF4FC491CC2309F471C081110E9493
:100830006D02EC2FF0E0EE0FFF1FE859FF4FA5917E
:10084000B491EC91ED2331E009F430E0832F2FB720
:10085000F8944091C5015091C6016091C701709113
:10086000C8012FBF00919201109193012091940132
:10087000309195016A017B01C01AD10AE20AF30A9C
:10088000970186010B3F11052105310520F01092DB
:1008900091011092900140939201509393016093C3
:1008A000940170939501209191013FEF320F383000
:1008B00048F401C0880F3A95EAF790919001892B8E
:1008C000809390012F5F209391012B30B9F4809198
:1008D000CE018F5F8D3208F080E09091CD019817A6
:1008E00049F0E82FF0E090919001EA56FE4F908396
:1008F0008093CE011092910110929001DF91CF91DF
:100900001F910F91FF90EF90DF90CF90089580E0BE
:100910009ECF00000000000000000000000000006A
:100920000F931F93CF93DF938B01EA0160E08EE07A
:100930000E94960261E08EE00E94C402F894219722
:1009400008F42BC0F8010190008007D0029005D078
:1009500001900190019001D017C008D007D006D0B7
:1009600005D004D003D002D001D00895409A001CD5
:100970000000000008F040980000000000000000A7
:10098000000008F4409808958F018091D2018823D7
:1009900009F4D5CF78940000D1CF78948BEC97E010
:1009A0000197F1F7DF91CF911F910F910895EBE738
:1009B000F1E061937193819391E0E039F907C9F710
:1009C00047E050E06BE771E080E091E00C94900428
:1009D000FC0124813581232B39F421E0FB01808146
:1009E000882349F020E007C0808191810E945D0C3E
:1009F00021E0892BB9F7822F0895FC018081918134
:100A0000009711F00C940E0B0895EF92FF920F9344
:100A10001F93CF93DF93EC017B018A018881998139
:100A2000009729F02A813B812417350788F4B80103
:100A30006F5F7F4F0E94970B009791F09983888397
:100A40001B830A832C813D81232B11F4FC0110822E
:100A50001D830C83B701888199810E94660C0CC0AC
:100A600088819981009711F00E940E0B19821882DB
:100A70001D821C821B821A82CE01DF91CF911F91B1
:100A80000F91FF90EF9008951F93CF93DF93CDB711
:100A9000DEB72C970FB6F894DEBF0FBECDBF188619
:100AA0001F821A8619861C861B86009769F0FC0136
:100AB00001900020E9F73197AF01481B590BBC01A9
:100AC000CE0107960E94050568E571E0CE01079604
:100AD0000E94E804882321F061E087E00E949602EA
:100AE0006BE571E0CE0107960E94E804882321F0AF
:100AF00060E087E00E9496026FE571E0CE01079604
:100B00000E94E8048823E1F161E08DE00E949602F2
:100B10006091F3017091F4018091F5010E94D70476
:100B200064EF71E080E090E00E941A036091F001B0
:100B30007091F1018091F2010E94D70464EF71E09D
:100B400080E090E00E941A036091F3017091F4013B
:100B50008091F5010E94D70464EF71E080E090E09D
:100B60000E941A036091F0017091F1018091F201ED
:100B70000E94D70464EF71E080E090E00E941A03C5
:100B800064E671E0CE0107960E94E804882321F014
:100B900060E08DE00E9496026AE671E0CE01079661
:100BA0000E94E8048823C1F16091F6017091F70179
:100BB0008091F8010E94D70464EF71E080E090E03A
:100BC0000E941A036091F0017091F1018091F2018D
:100BD0000E94D70464EF71E080E090E00E941A0365
:100BE0006091F6017091F7018091F8010E94D7049D
:100BF00064EF71E080E090E00E941A036091F001E0
:100C00007091F1018091F2010E94D70464EF71E0CC
:100C100080E090E00E941A031A8219821C821B82D3
:100C20001E821D8245E050E064E771E0CE0101962E
:100C30000E9405054D815E818B859C8584179507F3
:100C400070F08F819885009751F069817A816115E4
:100C5000710529F00E946D0C11E0892B09F010E05C
:100C6000CE0101960E94FD041123F1F08B859C8535
:100C70008630910520F0EF81F885309719F51092B4
:100C80007A01EAE7F1E02081203374F086309105A3
:100C900020F0EF81F8853097B9F410927A01EAE7F5
:100CA000F1E02081283394F0CE0107960E94FD04E4
:100CB0002C960FB6F894DEBF0FBECDBFDF91CF915B
:100CC0001F9108953596DFCF3596EBCF069720F02C
:100CD000EF81F885309701F510927A01EAE7F1E0AB
:100CE0008081805390E0FC01EE0FFF1FE80FF91F99
:100CF000E558FE4F8091F3019091F401A091F50128
:100D000080839183A28347E050E06BE771E080E04D
:100D100091E00E949004C8CF3596E2CF1F920F92C7
:100D20000FB60F9211242F933F934F935F936F93BE
:100D30007F938F939F93AF93BF93EF93FF9389EF2D
:100D400091E00E94DE01FF91EF91BF91AF919F91E1
:100D50008F917F916F915F914F913F912F910F9064
:100D60000FBE0F901F9018951F920F920FB60F9203
:100D700011242F938F939F93EF93FF93E091090298
:100D8000F0910A028081E0910F02F091100282FD41
:100D90001BC09081809112028F5F8F73209113028C
:100DA000821741F0E0911202F0E0E750FE4F958F7C
:100DB00080931202FF91EF919F918F912F910F904D
:100DC0000FBE0F901F9018958081F4CF1F920F9245
:100DD0000FB60F9211242F933F938F939F93AF934E
:100DE000BF938091C5019091C601A091C701B091B8
:100DF000C8013091C40123E0230F2D3758F5019627
:100E0000A11DB11D2093C4018093C5019093C6011B
:100E1000A093C701B093C8018091C9019091CA0104
:100E2000A091CB01B091CC010196A11DB11D809381
:100E3000C9019093CA01A093CB01B093CC01BF919B
:100E4000AF919F918F913F912F910F900FBE0F9077
:100E50001F90189526E8230F0296A11DB11DD2CF31
:100E60001F920F920FB60F9211242F933F934F931F
:100E70005F936F937F938F939F93AF93BF93EF9302
:100E8000FF93E0910401F09105010995FF91EF9125
:100E9000BF91AF919F918F917F916F915F914F9192
:100EA0003F912F910F900FBE0F901F9018951F929A
:100EB0000F920FB60F9211242F933F934F935F938E
:100EC0006F937F938F939F93AF93BF93EF93FF9312
:100ED000E0910201F09103010995FF91EF91BF911B
:100EE000AF919F918F917F916F915F914F913F91C2
:100EF0002F910F900FBE0F901F90189500000000CB
:100F0000E9EFF1E01382128288EE93E0A0E0B0E016
:100F100084839583A683B7838AE491E09183808359
:100F200085EC90E09587848784EC90E097878687AE
:100F300080EC90E0918B808B81EC90E0938B828BA6
:100F400082EC90E0958B848B86EC90E0978B868B7F
:100F5000118E128E138E148EF093FB02E093FA0220
:100F6000E8EEF1E089E9808387E1818384E382838D
:100F700081E083831482158216821782E6EFF1E006
:100F800080E4808311821282E3EFF1E0108281839A
:100F90001282E0EFF1E01082118212820895CF9365
:100FA000DF93CDB7DEB72C970FB6F894DEBF0FBE38
:100FB000CDBF789484B5826084BD84B5816084BDE2
:100FC00085B5826085BD85B5816085BD80916E00E7
:100FD000816080936E001092810080918100826018
:100FE0008093810080918100816080938100809155
:100FF00080008160809380008091B1008460809344
:10100000B1008091B00081608093B00080917A003F
:10101000846080937A0080917A00826080937A0065
:1010200080917A00816080937A0080917A00806854
:1010300080937A001092C10061E08DE00E94C402AA
:1010400060E08DE00E94960261E087E00E94C402A9
:1010500060E087E00E94960285E08093D10182ECF7
:1010600090E09093D0018093CF0162E083E00E94F2
:10107000C40262E085E00E94C4021092CE01109288
:10108000CD018CEF93E09093050180930401809152
:101090006900837F886080936900E99AE091090282
:1010A000F0910A0282E08083E0910502F09106024D
:1010B0001082E0910702F091080280E18083109293
:1010C0001102E0910D02F0910E0286E08083E09122
:1010D0000B02F0910C02808180618083E0910B0211
:1010E000F0910C02808188608083E0910B02F09186
:1010F0000C02808180688083E0910B02F0910C02E9
:1011000080818F7D80838091EC0188608093EC01E9
:1011100084E495E0909303038093020381E080933D
:10112000D2016091F0017091F1018091F2010E9471
:10113000D70499EDE92E91E0F92E6E0185E0C80EF5
:10114000D11C5E01ADE0AA0EB11C20E0622E20E0B1
:10115000722E36E0532E8091D4019091D3019111DB
:1011600080C1811116C00E9481038093D30188231E
:1011700009F488C01092D30187FF7BC0982F9F731A
:1011800090689093D4018295869586958370806C43
:1011900002C01092D401E091E7018D3009F0DCC06B
:1011A0008091FA029091FB02F0E0E752FE4F10822C
:1011B0001092E701F70101900020E9F79F012A5DF5
:1011C00031405092D5012093D6011092D701109250
:1011D000D8014091D5015091D6016091D70170910D
:1011E000D80149835A836B837C836CEF7FEF0E9425
:1011F0007A038E010F5F1F4F8091FA029091FB02DC
:10120000D8016D918D01DC01ED91FC910190F0818F
:10121000E02D09950C151D0579F76DEF7FEF809195
:10122000FA029091FB020E947A036EEF7FEF8091A9
:10123000FA029091FB020E947A0310E0212F30E025
:10124000F70101900020E9F7AF014A5D514080911C
:10125000FA029091FB022417350780F427523E4F83
:10126000D9016C91062E000C770B0E947A031F5F48
:10127000E5CF811190CF8FEF9FEF8DCF6FEF7FEF95
:101280000E947A038091FA029091FB02DC01ED91B9
:10129000FC910084F185E02D0995892B09F450C05B
:1012A0008091FA029091FB02DC01ED91FC910284A5
:1012B000F385E02D09958C3F09F042C064E670E0AB
:1012C00085E090E00E944C038823D1F18E01075FF6
:1012D0001F4F48018091FA029091FB02DC01ED91D1
:1012E000FC910284F385E02D0995F80181938F012B
:1012F000EA15FB0579F78091FA029091FB02DC0177
:10130000ED91FC910284F385E02D099589853A855C
:101310002B859C858093D5013093D6012093D701EE
:101320009093D801833009F484C020F5813009F40A
:1013300054C0E091FC02F091FD02823009F47DC0BE
:101340006114710409F407CF0E94CA01882309F4CB
:1013500002CF0E940000FFCEED3048F4AE2FB0E087
:10136000A752BE4F8C93EF5FE093E7018BCF1092B3
:10137000E70188CF843009F462C0853009F73090E6
:10138000D601032D10E062E370E0C80102960E94CE
:101390004C038823A9F28091FA029091FB02DC01B0
:1013A000ED91FC910284F385E02D099586E9882E64
:1013B00082E0982E412C8091FA029091FB02DC0190
:1013C000ED91FC910284F385E02D3414E9F1099547
:1013D000F40181934F014394EECF88E0E8EEF1E011
:1013E000DE01119601900D928A95E1F76EEF7FEF85
:1013F0008091FA029091FB020E947A038E010F5FA6
:101400001F4FF80161918F01062E000C770B809120
:10141000FA029091FB020E947A038016910689F7E6
:101420006FEF7FEF8091FA029091FB020E947A03A6
:1014300087CFE091FE02F091FF02099581CFE09104
:101440000003F0910103F9CF0995F801EA56FD4F29
:101450001082E0910203F091030386E992E009957E
:101460006FCF811196CE892F85CE2F923F924F92CA
:101470005F926F927F928F929F92AF92BF92CF9224
:10148000DF92EF92FF920F931F93CF93DF93CDB72D
:10149000DEB7CA1BDB0B0FB6F894DEBF0FBECDBFA5
:1014A00009942A88398848885F846E847D848C8476
:1014B0009B84AA84B984C884DF80EE80FD800C817F
:1014C0001B81AA81B981CE0FD11D0FB6F894DEBF62
:1014D0000FBECDBFED010895EE0FFF1F0590F491F3
:1014E000E02D09940F931F93CF93DF9382309105E2
:1014F00010F482E090E0E0910603F091070330E001
:1015000020E0B0E0A0E0309799F42115310509F40E
:101510004AC0281B390B24303105D8F58A819B81BC
:101520006115710589F1FB0193838283FE0111C06E
:10153000408151810281138148175907E0F0481713
:10154000590799F4109761F012960C93129713961D
:101550001C933296CF01DF91CF911F910F91089587
:101560000093060310930703F4CF2115310551F0C2
:101570004217530738F0A901DB019A01BD01DF01D1
:10158000F801C1CFEF01F9CF9093070380930603D1
:10159000CDCFFE01E20FF31F8193919322503109C9
:1015A00039832883D7CF2091040330910503232B5F
:1015B00041F42091080130910901309305032093F3
:1015C000040320910601309107012115310541F4F2
:1015D0002DB73EB740910A0150910B01241B350BEA
:1015E000E0910403F0910503E217F307A0F42E1B2A
:1015F0003F0B2817390778F0AC014E5F5F4F241777
:10160000350748F04E0F5F1F5093050340930403C6
:10161000819391939FCFF0E0E0E09CCFCF93DF9355
:101620000097E9F0FC01329713821282A091060321
:10163000B0910703ED0130E020E01097A1F4208184
:101640003181820F931F20910403309105032817E5
:10165000390709F061C0F0930503E0930403DF91BB
:10166000CF910895EA01CE17DF07E8F54A815B8143
:101670009E0141155105B1F7E901FB83EA834991C8
:101680005991C40FD51FEC17FD0761F4808191813A
:101690000296840F951FE901998388838281938143
:1016A0009B838A83F0E0E0E012968D919C911397E2
:1016B0000097B9F52D913C911197CD010296820FBB
:1016C000931F20910403309105032817390739F639
:1016D000309751F51092070310920603B09305035B
:1016E000A0930403BCCFD383C28340815181840F74
:1016F000951FC817D90761F44E5F5F4F88819981A4
:10170000480F591F518340838A819B819383828331
:101710002115310509F0B0CFF0930703E0930603DC
:101720009ECFFD01DC01C0CF13821282D7CFB0E083
:10173000A0E0EDE9FBE00C94370A8C01009751F42E
:10174000CB010E94720A8C01C801CDB7DEB7E0E17F
:101750000C94530AFC01E60FF71F9C01225031093B
:10176000E217F30708F49DC0D901CD91DC911197E0
:10177000C617D70798F0C530D10530F3CE010497CE
:101780008617970708F3C61BD70B2297C193D193EF
:101790006D937C93CF010E940E0BD6CF5B01AC1AE8
:1017A000BD0A4C018C0E9D1EA0910603B09107034B
:1017B000512C412CF12CE12C109731F58091040330
:1017C000909105038815990509F05CC046165706E7
:1017D00008F058C08091060190910701009741F4EC
:1017E0008DB79EB740910A0150910B01841B950B58
:1017F000E817F90708F055C0F0930503E0930403D8
:10180000F90171836083A0CF8D919C9111971296FD
:101810006C90129713967C901397A815B90559F5FB
:101820006C0142E0C40ED11CCA14DB0420F1AC01EF
:101830004A195B09DA011296159780F06282738269
:1018400051834083D9016D937C93E114F10471F0CD
:10185000D7011396FC93EE93129776CF22968C0FB6
:101860009D1FF90191838083F301EFCFF09307036C
:10187000E093060369CF4816590608F42C017D0150
:10188000D3019ACFCB010E94720A7C01009749F0E4
:10189000AE01B8010E94540CC8010E940E0B8701D2
:1018A00053CF10E000E050CFFB01DC0102C00190FB
:1018B0000D9241505040D8F70895FB01DC018D9105
:1018C000019080190110D9F3990B0895FB01DC01F7
:1018D00001900D920020E1F70895FB01DC014150D9
:1018E000504030F08D910190801919F40020B9F723
:0A18F000881B990B0895F894FFCFB0
:1018FA00100179037903000008038000000000004A
:10190A0090042F000000000000000000000000000A
:10191A0000000D00000000000000000000000000B0
:10192A000000000800000000007F0A00150B0000FC
:10193A0000001A00001900000000000260018D0179
:10194A004D02BE019C01B0014F4E004F4646004F6A
:10195A0050454E00434C4F534500464C4153485F57
:0A196A0052454400475245454E0027
:00000001FF
